:020000043400C6
:1004000000001834B51D023475310034111E023459
:100410007731003479310034111E02347B310034DD
:100420000000000000000000000000006113023422
:100430007D31003400000000F11202341910023442
:10044000111E023400000000111E0234111E02347D
:10045000111E0234111E0234111E0234111E023408
:10046000111E023400000000111E0234111E02345D
:10047000111E0234A9150034111E023400000000C0
:10048000111E023400000000111E0234111E02343D
:10049000111E0234111E0234111E0234111E0234C8
:1004A000111E0234111E0234111E0234111E0234B8
:1004B000111E0234111E0234111E0234111E0234A8
:1004C000111E0234111E0234111E0234111E023498
:1004D000111E0234111E0234111E0234111E023488
:1004E000111E023400000000111E0234111E0234DD
:1004F000111E0234111E0234111E02347F310034E9
:100500008D310034000000000000000000000000F9
:10051000111E02348D620134111E0234111E023488
:10052000111E0234111E0234111E0234111E023437
:10053000111E0234111E0234111E0234111E023427
:10054000111E02349D310034A9310034111E0234D1
:10055000111E0234111E0234111E0234111E023407
:10056000111E0234111E0234111E0234111E0234F7
:10057000111E0234111E0234111E0234111E0234E7
:10058000111E0234111E0234111E0234111E0234D7
:10059000111E0234111E0234111E0234111E0234C7
:1005A000111E0234111E0234111E0234111E0234B7
:1005B000111E0234111E0234111E0234111E0234A7
:1005C000111E0234111E0234111E0234111E023497
:1005D000111E0234111E0234111E0234111E023487
:1005E000111E0234111E0234111E0234111E023477
:1005F000111E0234111E0234111E0234111E023467
:10060000111E0234111E0234111E0234111E023456
:10061000111E0234111E0234111E0234111E023446
:10062000111E0234111E0234111E0234111E023436
:10063000111E0234111E0234111E0234111E023426
:10064000111E0234111E0234111E0234111E023416
:10065000111E0234111E0234111E0234111E023406
:10066000111E0234111E0234111E0234111E0234F6
:10067000111E0234111E0234111E0234111E0234E6
:10068000111E0234111E0234111E0234111E0234D6
:10069000111E0234111E0234111E0234111E0234C6
:1006A000111E0234111E0234111E0234111E0234B6
:1006B000111E0234111E0234111E0234111E0234A6
:1006C000111E0234111E0234111E0234111E023496
:1006D000111E0234111E0234111E0234111E023486
:1006E000111E0234111E0234111E0234111E023476
:1006F000111E0234111E0234111E0234111E023466
:10070000111E0234111E0234111E0234111E023455
:10071000111E0234111E0234111E0234111E023445
:10072000111E0234111E0234111E0234111E023435
:10073000111E0234111E0234111E0234111E023425
:0C07400000000000111E0234111E0234E3
:1007500010B5054C237833B9044B13B10448AFF3FB
:1007600000800123237010BDC05A0C34000000002B
:10077000C8B4023408B5034B1BB103490348AFF3B7
:10078000008008BD00000000C45A0C34C8B4023414
:10079000034613F8012B002AFBD1181A01387047C1
:1007A00081F0004102E000BF83F0004330B54FEA22
:1007B00041044FEA430594EA050F08BF90EA020F8F
:1007C0001FBF54EA000C55EA020C7FEA645C7FEA22
:1007D000655C00F0E2804FEA5454D4EB5555B8BF45
:1007E0006D420CDD2C4480EA020281EA030382EAB6
:1007F000000083EA010180EA020281EA0303362D48
:1008000088BF30BD11F0004F4FEA01314FF4801C1A
:100810004CEA113102D0404261EB410113F0004F2C
:100820004FEA03334CEA133302D0524263EB4303E3
:1008300094EA050F00F0A780A4F10104D5F1200E81
:100840000DDB02FA0EFC22FA05F2801841F10001DC
:1008500003FA0EF2801843FA05F359410EE0A5F1B0
:1008600020050EF1200E012A03FA0EFC28BF4CF0E1
:10087000020C43FA05F3C01851EBE37101F0004597
:1008800007D54FF0000EDCF1000C7EEB00006EEBA4
:100890000101B1F5801F1BD3B1F5001F0CD349082E
:1008A0005FEA30004FEA3C0C04F101044FEA445285
:1008B00012F5800F80F09A80BCF1004F08BF5FEA0C
:1008C000500C50F1000041EB045141EA050130BDEC
:1008D0005FEA4C0C404141EB0101013C28BFB1F5FE
:1008E000801FE9D291F0000F04BF01460020B1FA49
:1008F00081F308BF2033A3F10B03B3F120020CDA1C
:100900000C3208DD02F1140CC2F10C0201FA0CF0F9
:1009100021FA02F10CE002F11402D8BFC2F1200C5E
:1009200001FA02F120FA0CFCDCBF41EA0C01904014
:10093000E41AA2BF01EB0451294330BD6FEA04045D
:100940001F3C1CDA0C340EDC04F11404C4F1200248
:1009500020FA04F001FA02F340EA030021FA04F35A
:1009600045EA030130BDC4F10C04C4F1200220FAB1
:1009700002F001FA04F340EA0300294630BD21FAEF
:1009800004F0294630BD94F0000F83F4801306BFB5
:1009900081F480110134013D4EE77FEA645C18BFA9
:1009A0007FEA655C29D094EA050F08BF90EA020F40
:1009B00005D054EA000C04BF1946104630BD91EA38
:1009C000030F1EBF0021002030BD5FEA545C05D13B
:1009D0004000494128BF41F0004130BD14F580047A
:1009E0003CBF01F5801130BD01F0004545F0FE41EE
:1009F00041F470014FF0000030BD7FEA645C1ABF23
:100A0000194610467FEA655C1CBF0B46024650EA59
:100A1000013406BF52EA033591EA030F41F4002185
:100A200030BD00BF90F0000F04BF0021704730B50B
:100A30004FF4806404F132044FF000054FF00001E0
:100A400050E700BF90F0000F04BF0021704730B5A1
:100A50004FF4806404F1320410F0004548BF404276
:100A60004FF000013EE700BF42004FEAE2014FEACB
:100A700031014FEA02701FBF12F07F4393F07F4FA6
:100A800081F06051704732F07F4208BF704793F0A9
:100A90007F4F04BF41F40021704730B54FF46074BC
:100AA00001F0004521F000411CE700BF50EA0102BF
:100AB00008BF704730B54FF000050AE050EA010268
:100AC00008BF704730B511F0004502D5404261EBD8
:100AD00041014FF4806404F132045FEA915C3FF419
:100AE000D8AE4FF003025FEADC0C18BF03325FEAB6
:100AF000DC0C18BF033202EBDC02C2F1200300FA67
:100B000003FC20FA02F001FA03FE40EA0E0021FA8B
:100B100002F11444BDE600BF7BB972B90029BEBF23
:100B200000204FF0004106E008BF00281CBF6FF016
:100B300000414FF0FF3000F033BAADF1080C6DE921
:100B400004CE002909DB002B1ADB00F085F8DDF864
:100B500004E0DDE9022304B07047404261EB41014B
:100B6000002B1BDB00F078F8DDF804E0DDE9022360
:100B700004B0404261EB4101524263EB43037047D2
:100B8000524263EB430300F067F8DDF804E0DDE96F
:100B9000022304B0404261EB41017047524263EBD3
:100BA000430300F059F8DDF804E0DDE9022304B066
:100BB000524263EB4303704753B94AB9002908BF57
:100BC00000281CBF4FF0FF314FF0FF3000F0E8B9B4
:100BD000ADF1080C6DE904CE00F03EF8DDF804E05C
:100BE000DDE9022304B07047024608B50B4643EC2A
:100BF000172BB5EEC07BF1EE10FA03D4BDE8084028
:100C000000F00AB8B1EE477B51EC170B00F004F886
:100C1000404261EB410108BD9FED0B6B41EC170BAE
:100C20009FED0B5B27EE066BBCEEC66BB8EE464B3A
:100C300016EE101AA4EE457BFCEEC77B17EE900A69
:100C4000704700BFAFF30080000000000000F03DDF
:100C5000000000000000F0412DE9F04F099D88469A
:100C600004468E46002B4AD18A4217465FD9B2FA13
:100C700082F64EB1C6F1200301FA06FEB740B44039
:100C800020FA03F343EA0E0E4FEA17481FFA87FCD7
:100C9000230CBEFBF8F108FB11EE01FB0CF243EA5A
:100CA0000E439A4207D9FB1801F1FF3002D29A4253
:100CB00000F2548101469B1AA2B2B3FBF8F008FB84
:100CC000103300FB0CFC42EA034294450BD9BA18DE
:100CD00000F1FF332CBF01240024944502D9002CDD
:100CE00000F03F81184640EA0140A2EB0C020021CF
:100CF0001DB1F2400023C5E90023BDE8F08F8B420F
:100D000005D90DB1C5E9000100210846F5E7B3FAA0
:100D100083F100294ED14345C0F01281824240F256
:100D20000F810846002DE8D0C5E9004EE5E7002A0E
:100D300000F0AC80B2FA82F6002E40F0BB808B1A35
:100D40004FEA124EBCB20121020C80B2B3FBFEFC92
:100D50000EFB1C3342EA034304FB0CF29A420ED909
:100D6000FB180CF1FF382CBF4FF001094FF00009C0
:100D70009A4203D9B9F1000F00F0EC80C4469B1AE7
:100D8000B3FBFEF80EFB183304FB08F440EA034201
:100D900094420BD9BA1808F1FF332CBF0120002070
:100DA000944202D9002800F0D1809846121B48EAEC
:100DB0000C409DE7C1F120068B4008FA01F400FACF
:100DC00001F922FA06F728FA06F88A401F4320FAAA
:100DD00006F3380C23431FFA87FC1C0CB8FBF0FE0B
:100DE00000FB1E8844EA08440EFB0CF8A0450ED90F
:100DF0003C190EF1FF3A2CBF4FF0010B4FF0000BE6
:100E0000A04503D9BBF1000F00F0B880D646A4EB93
:100E100008041FFA83F8B4FBF0F300FB134403FB50
:100E20000CFC48EA0444A4450ED93C1903F1FF30F8
:100E30002CBF4FF001084FF00008A44503D9B8F1CA
:100E4000000F00F09F80034643EA0E40A4EB0C0421
:100E5000A0FB02EC64457346E04602D307D1F1459E
:100E600005D2BEEB02036CEB070C0138E0465DB126
:100E7000B9EB030264EB080404FA06F622FA01F364
:100E8000CC401E43C5E90064002136E7B1FBF2FC0B
:100E9000010C144680B2964641EA0841202690464D
:100EA00040EA01431046B1FBF2F1A3EB080341EA2B
:100EB0000C414BE7B740C6F1200301FA06F221FAD4
:100EC00003F84FEA174E20FA03F3BCB2B0401343C5
:100ED000020C190C80B2B8FBFEF90EFB198841EA2E
:100EE000084109FB04F8884551D9791809F1FF3CFC
:100EF0002CBF4FF0010A4FF0000A884502D9BAF121
:100F0000000F31D0A1EB0801B1FBFEF909FB04F899
:100F10000EFB19119BB243EA0143434535D2FB183E
:100F200009F1FF312CBF4FF0010A4FF0000A434591
:100F3000BBD2BAF1000FB8D1A9F102013B44B4E72A
:100F4000841A68EB030201209646EBE63A44A8F1C6
:100F500002082BE7ACF1020C3B4410E702393B449A
:100F6000A9E63A440238BEE6A7EB0808A9F1020C4C
:100F70004144B1FBFEF909FB04F8C9E7AEF1020EEA
:100F80003C4444E7023B3C445EE749468DE7A1EB25
:100F90000801CC46B1FBFEF909FB04F8B8E700BF35
:100FA000704700BF044B82B0C3F84C0AD3F84C32F0
:100FB0000193019B02B0704700800256044B82B03F
:100FC000C3F8600AD3F860320193019B02B0704706
:100FD0000080025630B5ADF51B7D402200216846E9
:100FE00021F062FF9822002110A821F05DFF4FF44C
:100FF000C872002136A821F057FF012010F0FCFF35
:10100000012003F0DBF90124002319227D210225B0
:10101000CDE91D32CDE925140822E121CDE91A538D
:10102000CDE92153CDE92323CDE92932CDE92B3177
:10103000CDE92F53CDE931231093062310A8CDE934
:101040001F44CDE92745CDE92D45CDE934331C9525
:10105000339108F0EFFD00B1FEE74FF440337F22FB
:10106000CDE900234FF0407302934FF08053CDE958
:101070000C344FF00053CDE90E344FF48013CDE91A
:101080000804CDE90A05CDE90330CDE90500079054
:10109000684609F0CBF900B1FEE7084B00226193E6
:1010A0004FF44003CDE93623054B36A8629309F08F
:1010B00037FD00B1FEE70DF51B7D30BD14000003C8
:1010C000140400032DE9F0439BB003F033FC02ABA2
:1010D000014601AA4FF0FF3003F034FC0024DDE9A3
:1010E000011220B2013403F0B3FBC32CF7D1FFF798
:1010F00071FF1FF045FF1023BD4C0225C4F86C3A68
:10110000D4F86C2201271292129AC4F85C3AD4F8EF
:101110005C324FF007081193119B6023B54815A965
:101120001593CDE916571895CDF8648006F0ACFB01
:101130004FF4E133B048B14A0C21C0E90023002349
:10114000C0E90431C0E9023383614FF40043C36155
:101150000FF0B8FC024600B1FEE74FF00040DFF8A8
:101160002893FFF72BFFC4F8200AC9F8200238465D
:10117000FFF718FF2846FFF715FF0420FFF712FFBF
:101180000820FFF70FFF4FF48053C4F8543AD4F807
:10119000543215A81393139B994BCDE9162215933E
:1011A00008F0BCF9974B15A8159308F0B7F9964BC2
:1011B00015A8159308F0B2F9944B15A8159308F0EB
:1011C000ADF901F08DFF9248924B036010F068F882
:1011D000064628B1AC21904B904A914820F01AFE67
:1011E00010F0FEF810F020F9042010F0DFF810F0F5
:1011F00011F915F0CDFB304611F0BEFF304612F06C
:10120000DFF840F2011369463046ADF8003011F0C6
:101210006BFE304611F0D6FD4FF40073C4F8583A17
:10122000D4F85832159503253846149315A9149B04
:10123000169508F099F815A9082008F095F815A951
:10124000092008F091F815A90A2008F08DF815A9D1
:101250000B2008F089F815A9042008F085F840460D
:1012600015A908F081F829466E4808F0D3F82946F8
:101270006D4808F0CFF829466C4808F0CBF82946AD
:101280006B4808F0C7F829466A4808F0C3F82946B1
:10129000694808F0BFF82946684808F0BBF82946B5
:1012A000674808F0B7F82946664808F0B3F82946B9
:1012B000654808F0AFF82946644808F0ABF82946BD
:1012C000042008F0A7F84FF480634FF0FF31C4F812
:1012D000583AD4F858225E481592159AC4F8183A2C
:1012E000C9F81832C4F8841AD4F884321093109BC9
:1012F000C4F88C1AD4F88C320F930F9BC4F8901A50
:10130000D4F890320E930E9BC4F8941AD4F8943209
:101310000D930D9BC4F8981AD4F898320C930C9B3B
:10132000C4F89C1AD4F89C320B930B9BC4F8A01AF7
:10133000D4F8A0320A930A9BC4F8A41AD4F8A432B1
:101340000993099BC4F8A81AD4F8A8320893089BFB
:10135000C4F8AC1AD4F8AC320793079BC4F8B41A9B
:10136000D4F8B4320693069BC4F8B81AD4F8B8324D
:101370000593059BC4F8BC1AD4F8BC320493049BB3
:10138000C4F8881AD4F888320393039B21F056FCE2
:10139000304A3149314821F0E9FB314A314932487C
:1013A00021F0E4FB3B462A460D21304821F0DEFBCC
:1013B00033462A4639462E4821F0D8FB334632467A
:1013C00029462C4821F0D2FB2B492C4821F0CEFB9A
:1013D0002B492C4821F0CAFB1D4821F02FFC01F0BD
:1013E0001DFC30461EF06EFF1BB0BDE8F08300BF51
:1013F0000080025600100256486B0C340010005258
:1014000000310252803102520032025280320252C6
:101410003C6B0C34004003589CDE0234490E03340C
:1014200064B80234040000300300003002000030D1
:101430000A000030050000301C0000201D000020C4
:1014400006000030070000300800003018000010CF
:101450006FB8023498B802349CB80234A8B8023489
:10146000AADE0234CDB80234D9B80234F3B802345B
:101470000BB902341DB9023437B9023467B90234EA
:1014800081B90234B3B90234009002567FB53B4AA9
:10149000136843F400531360394B1A6A22F4403244
:1014A0001A621A6A22F040721A6203F0A2F9354BEE
:1014B0005A6912F4003211D1BFF34F8FBFF36F8F0F
:1014C000C3F85022BFF34F8FBFF36F8F5A6942F4B6
:1014D00000325A61BFF34F8FBFF36F8F274A1368F3
:1014E00043F480531360A2F57342536913F48033BD
:1014F00028D1C2F88430BFF34F8F43F6E074D2F89E
:101500008030C3F3C900C3F34E335B0100F1010E19
:1015100001464EF001E003EA040646EA8175C2F88E
:10152000605201390FF007C8203B13F1200FEDD1B5
:10153000BFF34F8F536943F480335361BFF34F8F31
:10154000BFF36F8F104B4FF4806202930F4B104923
:10155000019301230F48009300231EF0BFFD30B913
:101560004FF4A6710C4B0D4A0D4820F053FC1EF0B1
:10157000FFFE40F24F110B4B084AF5E700E001E097
:101580000080025600ED00E0DC6A0C34DC5A0C34BA
:10159000CDB90234C5100034D2B90234540E03342C
:1015A00064B802349CDE0234FEE700B5E5B04FF4C7
:1015B000C8720021684621F077FC00231022CDE993
:1015C00000234FF400134FF08051329303236846F9
:1015D000CDE9221309F0A4FA48B900230822CDE985
:1015E0000023282324906846259309F099FA65B0D2
:1015F0005DF804FB08B54FF48060FFF7D3FC4FF0B3
:101600008040FFF7DBFC044BC3F8200A03F580534E
:10161000C3F8200208BD00BF0080025600BEFEE7EE
:1016200008B502680C4B9A4215D14FF48010602225
:101630000A4BC3F8200A03F58053C3F82002FFF7D2
:10164000BDFC074B83F8412302229A60502283F8A5
:10165000422304229A6008BD0040035800800256CD
:1016600000E100E0502208B54FF40020FFF7A6FC8F
:10167000034B83F83F234FF000425A6008BD00BF80
:1016800000E100E030B54FF0070E0B684EF001E0CE
:1016900003604B684C6943608B6845698360CB6825
:1016A000C3600B690361002305EBC30204EBC301B4
:1016B00003C9013382E803000FF00BC030BD03689B
:1016C00010B5002BB8BF00240A68B8BF04600C68CE
:1016D000002CBCBF00240C600468B4F5487F24BF14
:1016E00040F21F3404600C68B4F5F07F24BF40F270
:1016F000DF140C600068984204D10868801A18BF93
:10170000012010BD0120FCE770B52DED0E8B90ED92
:1017100004DAB7EECDDA0D46B0EE4D0B90ED03EAEC
:1017200090ED02BA0446164623F076FD95ED007A58
:10173000B6EE00CBB7EEC77A95ED019AB7EECBBA0D
:1017400094ED008A37EE4C7BB7EEC99A27EE0B7BFF
:10175000B7EEC88A39EE4C9BB7EECEEAA7EE008B07
:10176000B0EE40ABB0EE4D0B23F0A2FD29EE0E9B88
:10177000A9EE408BB7EEC88B86ED008A95ED006A26
:10178000B7EEC66A94ED017A36EE4C6BB7EEC77AC7
:1017900026EE0B6BA0EE067BAAEE097BBDEC0E8B52
:1017A000B7EEC77B86ED017A70BD000010B5094C1D
:1017B0004FF0FF3120681EF0DBFA012806D040F21E
:1017C000D451054B054A064820F024FB02F0E0FD09
:1017D000EEE700BF9C6C0C34DEB902341F100334FA
:1017E000ECB9023410B54FF0FF310446406D1EF0E5
:1017F000BFFA012806D04FF4B4610D4B0D4A0E48D4
:1018000020F008FBD4F8C030606DB3FA83F35B09B5
:10181000C4F8C03000231A4619461EF005F9012805
:1018200004D040F2A351024B024AE8E710BD00BFCA
:10183000DEB90234F70F0334ECB9023410B54FF0BF
:10184000FF310446406D1EF093FA012806D040F2A5
:1018500094510D4B0D4A0E4820F0DCFAD4F8BC3000
:10186000606DB3FA83F35B09C4F8BC3000231A46F9
:1018700019461EF0D9F8012804D040F29751024BC6
:10188000024AE8E710BD00BFDEB90234DD0F0334C1
:10189000ECB9023438B50446007810F029FC6368CE
:1018A0000546834204D018B1A3680BB1E06898479D
:1018B000656038BD08B540F27F11024B024A03480B
:1018C00020F0A8FAF6B90234D10F0334ECB902348F
:1018D0002DE9F047C4B02FAEB146002500F11C0A37
:1018E00000F1300405AF2146504603AAFFF70CFF74
:1018F000DDED037AFDEEE77A17EE901ADDED047A5E
:10190000FDEEE77A02290A4640F21D30B8BF0222F6
:1019100017EE903A8242A8BF0246022B184640F2C8
:10192000DD1CB8BF02206045A8BF60461B1A18BF67
:101930000123914218BF01230DF1680847F82520C3
:1019400048F825000135152D49F8043B04F1080439
:10195000C9D1002456F8043B43B96FF0FF030222BB
:1019600058F8241057F8240010F0D2FA0134152C3E
:10197000F0D100254FF07F46104C206844AB03EBBC
:10198000800050F8543C8BB9626844AB03EB820290
:1019900052F8543C53B9009652F8A83C50F8A81C91
:1019A00052F8FC2C50F8FC0C10F03EF90135152DC6
:1019B00004F10804E1D144B0BDE8F08738100334E5
:1019C00010B52DED0C8B90ED04CAB7EECCCA0446D1
:1019D000B0EE40AAF0EE609AB0EE4C0BD0ED02DA19
:1019E000B0EE41DA23F018FC94ED039A9FED1CBA97
:1019F00029EE0AAAB0EE408BB0EE4C0B23F058FC57
:101A0000B7EECAAA2DEE8BBA20EE4A7BB7EECBBA60
:101A1000ABEE087B28EE0A8BB7EEC77BD4ED007ADD
:101A2000F4EE49DAABEE008B77EE877AF1EE10FA3E
:101A3000B7EEC88BC4ED007AD4ED017A3DFE899AE9
:101A400069EE299A77EE887A29EE0D9AC4ED029A0A
:101A500084ED039ABDEC0C8BC4ED017A10BD00BF80
:101A600000000000000000002DE9F0472DED068B7E
:101A7000ADF5067D14F0BFFC30B14FF4A661A84B64
:101A8000A84AA94820F0C6F93CACC4E90000A74820
:101A900002F066F920B140F2A731A14BA44AF0E769
:101AA0004FF4D8334A934FF4FC534C93A14B214647
:101AB0009E4830AA4E9302F08FF920B140F2B13126
:101AC000974B9B4ADDE7236898484B9363685CA972
:101AD0004D9302F085F920B14FF46E71904B944A0A
:101AE000CFE75CA94FA815F0C3F9014620B140F239
:101AF000BA31914B8E4AC4E710225CA8289421F099
:101B0000D3F98E4802F0A6FA20B140F2E531844BB9
:101B10008B4AB6E74FF41333884829AA1DA91E93B0
:101B200002F0D4FA20B140F2E9317D4B844AA8E7B3
:101B300004232093FC235CA9804830AA229302F05E
:101B4000C8FA014620B14FF47C71754B7C4A98E786
:101B50005E9B24221F935F9B5CA8219321F0A4F934
:101B6000784821F06BF828F009FA28F043FA044687
:101B700020B140F2BA41744B744A82E7022029F046
:101B800099F9022029F084F9032029F093F9032020
:101B900029F07EF928F0A0FC01466D4820F0E6FF10
:101BA00040236C486C490473C0E900130FF080FCBB
:101BB00020B140F2C541694B644A62E701238DF8C8
:101BC000703100235D93FF2362485CA964930FF09A
:101BD00031FD064620B140F2CB41604B5B4A50E7F5
:101BE0005F4D4FF4005102A802AC27F061F80FCC12
:101BF0000FC50FCC0FC50FCC0FC594E8070085E8C3
:101C00000700A5F1300027F0A5F902F0D4FB554FED
:101C10000446314638681EF0ABF820B940F23C511A
:101C2000514B404A2DE7D7F8B43007EB8302D2F886
:101C3000AC00D7F8A820013393FBF2F102FB11337B
:101C4000C7F8B4300028E9D0DFED489A314602F0F9
:101C50008BFB3546B0EE699A9FED2F8B02F0ABFB04
:101C6000031B07EE903AB2EE0E7AF8EE677AE9EED1
:101C7000077A9FED3F9A80464FF0FF31786D27EE4F
:101C8000899A1EF075F80128814604D040F2EF11C0
:101C9000384B394AF5E6D7F8B830D7F8A81007EB33
:101CA0008302013393FBF1F001FB1033D2F8AC2037
:101CB000C7F8B83022B940F24951304B194AE0E632
:101CC0002F4B1C68002D40F04881309202F073FBCE
:101CD0004A46064630A9154802F0D2F848B9134DD5
:101CE0000221284602F054F8112807D112F0B4FE60
:101CF000F6E740F2C7310A4B224AC2E61038012803
:101D0000EED90A4802F0BFF800283FD040F28F31E8
:101D1000034B1D4AB5E600BF182D4454FB21F93F83
:101D20000CBA0234950F0334ECB90234A0CF0C3452
:101D3000820F03340037020020BA023440CF0C3443
:101D40006F0F033442BA02344CBA0234620F0334C8
:101D50005EBA02341C6C0C340000035871BA0234B1
:101D6000E06B0C34C0CD0C347FBA023400000000AC
:101D70000000803DDEB90234510F03348BBA0234C7
:101D80007CCE0C343F0F0334230F03344B9B0221D2
:101D90005C934D9B5AAA5D935CA84FAB15F090F8ED
:101DA00020B14FF47371924B924A6AE65B9B002B11
:101DB00014BF012500256ED05A9BDFED8F7AD3ED3D
:101DC000015A93ED026AD3ED036A93ED047A65EE4E
:101DD000A75A26EE276A66EEA76A27EE277A4FF003
:101DE000070E5A69C3ED015A83ED026AC3ED036A17
:101DF00083ED047A4EF001E0134693ED005A25EE90
:101E0000275A83ED005A93ED015A25EE275A0833DD
:101E100003ED015A0FF00FC8DFF8F09192ED050ABB
:101E200089ED037A92ED017AD2ED007A30EE470A1D
:101E3000D2ED040AB1EE400A70EEE70AC9ED005A8D
:101E400089ED016AC9ED026A23F07EFAB7EEC07A25
:101E500038EE477BB7EEC77B9FED615BB7EEC77A85
:101E60009FED614B37EE055B85EE046BB7EEC66BFD
:101E7000BBFE466AB7EEC66AA6EE447B9FED5F1ACC
:101E8000B7EEC77BF0EE410ABEEE000A484689ED88
:101E9000047AFFF795FD4C9A002A1DDD4B9B03F059
:101EA0001F011144BFF34F8FDA4303EB010C62446F
:101EB00020395209203102F1010ED8BF4FF0010E36
:101EC0004EF001E04E48C0F85C3220330FF005C8F8
:101ED000BFF34F8FBFF36F8F4E9A002A1DDD4D9BCE
:101EE00003F01F011144BFF34F8FDA4303EB010CE2
:101EF000624420395209203102F1010ED8BF4FF05F
:101F0000010E4EF001E03E48C0F85C3220330FF085
:101F100005C8BFF34F8FBFF36F8F02F04CFA5A9B87
:101F2000801B1B68239307EE900AF1EE0CAAF8EED3
:101F3000677A0023E9EEAA7AB4EE00AA1A46194697
:101F4000386867EE8A9A1DF06FFD0128814613D02C
:101F50004FF4F3712B4B2C4A93E52C4E0DF14C0CA6
:101F6000BCE80F000FC6DCF800305A9823A9336094
:101F7000FFF788FB0020D6E775B90025244E4FF007
:101F8000FF31706D1DF0F4FE012800F09B8240F2DD
:101F900062511C4B1F4A74E51F4A204B04F0030496
:101FA0001F4E02FB043A0FCE5CAC0FC40FCE0FC421
:101FB00096E80F0084E80F0000231D9D194829A909
:101FC000CDE92A332C9329950FF0EEFA044678B325
:101FD0004FF48E61144B154A53E500BFAFF30080F8
:101FE000182D4454FB210940182D4454FB2119405D
:101FF00020BA02343F0F033400004844666626408E
:1020000000ED00E0DEB90234130F033480CF0C344E
:10201000E8DA0B34950F033400701700008826911E
:1020200080B502341C6C0C3471BA0234E50E0334F2
:102030004FF0FF35E0224B4611464FF054500095CB
:1020400028F0B6F8E02321461A46204627F0DAFFAA
:10205000204628F0C7F94B464FF4F0724FF4487110
:102060005046CDE9005928F003F8484628F07CFD99
:102070002B464A4621469B4D484627F0E9FB30A8AF
:1020800028F03AFBD5ED010A95ED000AF1EE600A61
:10209000B1EE400A30A828F03DFBDFED937A95EDD4
:1020A000040A30A820EE670A28F092FBDFED8F7A51
:1020B000D5ED030A95ED020AC7EEA00A87EE800A65
:1020C00030A828F05FFBDFED8A0A5646B0EE600AC2
:1020D00030A828F01FFB5CAB18AD93ED006AD3ED80
:1020E000015A93ED027A0020294630AAD2ED017AF6
:1020F000D2ED006A65EEA77AE6EE867AD2ED026A44
:10210000E6EE877A01300328E5EC017A02F10C0251
:10211000ECD10A6801341A604A68042C5A608A6853
:1021200003F10C0343F8042CD6D1DDED663A9DEDA6
:10213000653ADDED632A9DED622ADDED601A9DEDC5
:102140005F1ADDED5D0A9DED5C0A28F065F96948CE
:1021500027F03AF8674827F019F90FF09DF927F0B2
:1021600049FF20B140F28A41634B644A89E41E9AD8
:10217000002A1CDD1D9B03F01F011144BFF34F8F8C
:10218000DA435C18224420395209203102F1010E51
:10219000D8BF4FF0010E4EF001E05948C0F8703240
:1021A00020330FF005C8BFF34F8FBFF36F8F02F0DE
:1021B00002F90446534D0221284601F063FF11281D
:1021C00002D112F049FCF6E7A0F11003012BF2D97D
:1021D0004C4801F081FF814620B14FF467714A4BB2
:1021E0004A4A4EE402F0E7F8494A2199041B1F9835
:1021F00000F04EFF209B0546002B1DDD1F9901F0CE
:102200001F021A44BFF34F8FCB4301EB020C634410
:10221000203A5B09203203F1010ED8BF4FF0010EC6
:102220004EF001E03648C0F85C1220310FF005C8CE
:10223000BFF34F8FBFF36F8F229B002B1DDD2199C2
:1022400001F01F021A44BFF34F8FCB4301EB020C86
:102250006344203A5B09203203F1010ED8BF4FF0EE
:10226000010E4EF001E02648C0F85C1220310FF05C
:1022700005C8BFF34F8FBFF36F8F07EE904ADFF8AB
:10228000A0A0F8EE677A9AED007AE7EE2A7A67EE78
:102290008A7A204C4FF0FF31606DCAED007A1DF054
:1022A00067FD012805D040F2AA411B4B1B4AFFF7EE
:1022B000E8BB2B462DB1DAED007AFDEEE77A17EE9A
:1022C000903AC4F8B0300023606D1A4619461DF0EC
:1022D000ABFB012826D040F2AD410F4B0F4AFFF770
:1022E000D0BB00BF80CF0C34E12E654200006043BC
:1022F0000000E042E06B0C344CBA0234E50E0334CB
:1023000000ED00E040CF0C340CBA0234C90E0334A7
:1023100084CE0C34E8DA0B34DEB90234010F033416
:10232000DC6B0C34BFF34F8F4BF6803E4EF001E078
:10233000C14BC3F85C6220360FF005C8BFF34F8F66
:10234000BFF36F8F002D3FF418AEBC4EBC4C5CAB9E
:1023500003EB090206EB0901204609F10809FFF722
:10236000D3F9B9F1A80FF2D1B64C29AE0FCC0FC6F4
:1023700094E807000C3486E807000FCC30AE0FC697
:102380000FCC0FC694E80F00DDED5D7A9DED6F0A6E
:10239000DDED6E0A30EE670ADDED5C7A86E80F004F
:1023A00070EEE70AB1EE400A22F0CEFF9FED9C7B73
:1023B000B7EEC00A37EE407BB7EEC77B9FED9A5B66
:1023C000B7EEC77A9FED9A4B37EE055B85EE046B4F
:1023D000B7EEC66BBBFE466AB7EEC66AA6EE447B96
:1023E000DFED996AB7EEC77BDFED987A8DED1C7A49
:1023F000B0EE666AB0EE677A0C2130AB53F8042B6E
:102400005CA800EBC20292ED005AD2ED015AB4EE84
:10241000C57AF1EE10FAF4EEE75A37FE057AF1EEDE
:1024200010FAB4EEC65A58BFF0EE657AF1EE10FA23
:10243000F4EEE65A36FE056AF1EE10FA76FEA56A6B
:102440000139DBD137EE065AF6EE004A77EEA65A8E
:1024500025EE245A65EEA45A37EE467A77EEE67AF0
:102460004FF0070E8DED185ACDED195A8DED1A7AF1
:10247000CDED1B7A8DED245ACDED255A8DED267AC2
:10248000CDED277A4EF001E0289B29A951F8042BC5
:102490005CA800EBC2021068526818605A600833EA
:1024A0000FF00DC0B0EE001A18A8F0EE410A9FED33
:1024B000680A13AE18ACFFF783FA0FCC0FC6236877
:1024C00033605BE5002D40F09A80FDEEE97A17EE6F
:1024D000903A5A99C6F8AC300B685E48C6F8C830D6
:1024E00086ED2A9A564CC6F8C450C6F8CC50FFF771
:1024F000C9F80FCCDFF868C1ACE80F00604623686C
:10250000A8224E4940F8043B20F055FF002D78D01A
:102510004FF00009DFF824A1103C5CAB03EB09028B
:102520000AEB0901204609F10809FFF7EDF8B9F1B6
:10253000A80FF2D1DDED6E7ADDED5C6AB6EE006AD1
:1025400076EEA76A9DED647ADDED627AA6EEC67A34
:10255000E6EEC67AB5EEC07AF1EE10FAF5EEC07A84
:1025600048BFB1EE477AF1EE10FA48BFF1EE677A54
:10257000B4EEE77A9DED6D7ADDED697AF1EE10FA51
:10258000B4EEE77A9DED757ADDED717ACCBF01236B
:102590000023F1EE10FAB4EEE77A9DED7D7ADDEDE1
:1025A000797A03F1010248BF1346F1EE10FAB4EE56
:1025B000E77A9DED857ADDED817A03F1010248BF6E
:1025C0001346F1EE10FAB4EEE77A03F1010248BFC8
:1025D0001346F1EE10FA03F1010248BF1346C6F8A4
:1025E000A4310023706D1A4619461DF01DFA01280A
:1025F0000AD040F27251184B184AFFF742BA002332
:1026000067E74FF0FF33EAE7002330681A461946C0
:102610001DF00AFA4446FFF721BB00BFAFF300806C
:10262000182D4454FB21F93F182D4454FB21094037
:10263000182D4454FB21194000ED00E084CE0C34E9
:1026400080CF0C34B0B5023400401C4600401CC69C
:10265000CDCCCCBDB8DB0B34DEB90234950F0334DE
:10266000D0DB0B342DE9F0472DED048B8369054653
:102670000C4694B0002B00F0FD80D1ED027AFDEE07
:10268000E77A17EE900AD1ED037AFDEEE77A17EEBE
:10269000901AD4ED057AFDEEE77A17EE903AD4ED74
:1026A000047AFDEEE77A17EE902A013202EBD2723D
:1026B0000133521003EBD37352425B1086185B4216
:1026C000801A0296CE18C91A04900C9102A803A988
:1026D0000396FEF7F4FF0CA904A8FEF7F0FFDDE96E
:1026E00002014FF0FF23049A00930C9B121A5B1A0D
:1026F0000FF0F8FA0026DFF8A081664FA26936F0E5
:10270000020302EBC602D2ED007AFDEEE77ACDEDD0
:10271000027AD2ED017A0CBFC146B946FDEEE77AE6
:1027200003A902A8CDED037A0136FEF7C8FFDDE963
:1027300002014B4602220FF0EBFB072EDED1F6EE34
:10274000006AD4ED097A94ED0A7A94ED0B9A67EE5B
:10275000E67A27EE667AB7EEC99AB1EE676AF1EECD
:10276000476AB0EE490BCDED047A8DED057A8DED1B
:10277000066A8DED077A8DED086ACDED096ACDED1B
:102780000A7ACDED0B6A22F047FDB0EE408BB0EE39
:10279000490B22F08DFD4FF0040E0DF110094B4650
:1027A0004EF001E093ED017A93ED005AB7EEC77A4F
:1027B000B7EEC55A27EE406B28EE077BA8EE056BF7
:1027C000A5EE007BB7EEC66BB7EEC77B83ED006A64
:1027D00083ED017A08330FF01BC84FF0040ED4EDDF
:1027E000076A94ED087A4EF001E004ABD3ED007A6D
:1027F00077EEA67AC3ED007AD3ED017A77EE877A89
:10280000083343ED017A0FF00FC800260CAFB8462D
:10281000B246D9ED007AFDEEE77AC8ED007AD9ED3F
:10282000017AFDEEE77A414617EE903A404641F8CC
:10283000043FFEF744FF0AF1010ABAF1040F46EA29
:10284000000609F1080908F10808E2D196B9DFF895
:102850004480013614AB06F00302CDF8008003EB90
:10286000C202796852E9082357F8080B0FF0DCF927
:10287000042EEED16B693BB1204614B0BDEC048B45
:10288000BDE8F047FFF724B814B0BDEC048BBDE8F9
:10289000F08700BF0000FFFFFF0000FF0000000006
:1028A0002DE9F04F00212DED048B0846CFB00FF03D
:1028B000C1FB014608B1FEF7FDFFC14BDFF85483B1
:1028C000CDE907038DF818000120CDF824800FF022
:1028D000B1FB0028EFD1012304469FEDB79B8DF893
:1028E0002830B84BDFF830A3CDE90B03CDF83480A6
:1028F0004FF0FF31D8F800001DF03AFA012806D059
:1029000040F2B951B04BB14AB1481FF083FA06A862
:10291000FEF7C0FF0AA8FEF7BDFF4FF0FF31D8F861
:1029200054001DF025FA012804D040F2BF51A64BF7
:10293000A64AE9E74FF48072A6490EA820F03BFDB5
:102940000023D8F854001A4619461DF06DF80128E6
:10295000054604D040F2C2519B4B9C4AD4E71294E6
:1029600001F029FD039072B69B4BDAF800209B48DA
:10297000294600FB02301EF0F5FF074620B140F269
:102980007F51974B974ABFE762B6974C4FF4F0736D
:102990004FF448720146009004F1380504F1200616
:1029A0000FF068FA0FCE0FC596E8030085E8030024
:1029B00001F056FD0546C4E908071EF027F92D1A57
:1029C00063EB0303C4E90A5301F0F5FCA36C226E28
:1029D00020639B1AB3F57A7F80F0AA80D4E91C2388
:1029E000D4E91601801A61EB0301FEF75FF8D4E920
:1029F0001A3241EC180BD4E91401C01A61EB020140
:102A0000FEF754F828EE098B41EC160B88EE067B96
:102A10004D9BB7EEC78B002B17DB4FF00009734AB5
:102A20003033B2F804B0D1880BF10706029126F0DA
:102A3000070104910299F60871431568DBB2203B47
:102A400001FB0355029B4B457AD8DDED0E7A9FEDD5
:102A5000687AC7EE278A0EF0EDFE002102220846B2
:102A6000644B00F06BFB0EF0E5FEB7EEC87AC18850
:102A700002228DED007B604B002000F05FFB0EF02A
:102A8000D9FEC18802225D4B01EB4101002000F01C
:102A900055FB0EF0CFFE0222C1880F9B9140002013
:102AA0000093574B00F04AFB0EF0C4FE109BC18808
:102AB000022201EB810100200093524B00F03EFB0B
:102AC0000EF0B8FEB7EEE87AC1884F4B8DED007B73
:102AD00002220020C1EBC10100F030FB159B002B4E
:102AE00005DD179B1BB117A90EA8FFF7BBFDDAF890
:102AF00000203A49384B01FB0233BFF34F8F45F6B4
:102B0000C05E4EF001E0414AC2F8683220330FF057
:102B100005C8BFF34F8FBFF36F8F72B601201EF051
:102B20002BFF00283CD040F289512D4B384AEBE670
:102B3000902204F1380104F1500020F09BF94DE798
:102B40002B78012E1C4604D0022E0DD12C8864BA9D
:102B5000A4B2012709EB49010A317B1E5B450AD368
:102B600009F1010935446DE76A78AC781B0443EA42
:102B700002231C43EDE70122049BDB1B02FA03F353
:102B800023420BD04FF07F430093032307EB470012
:102B90001A46073005910FF06DF905990137DCE70A
:102BA00062B6DAF80030C3F10103CAF8003001F070
:102BB00002FC039BC41A9BE6000000000000594081
:102BC0003D180034E5170034DEB902341110033427
:102BD000ECB9023490DB0B3400180F9100B80B00F5
:102BE00071BA0234BA0F0334E0CF0C34A8170C3496
:102BF00000007A449ABA0234A3BA0234ADBA02345D
:102C0000B8BA0234C2BA0234CCBA023400ED00E0E1
:102C1000A30F0334E8DA0B34C0D00C342DE9F043B1
:102C2000854D93B0854820F009F8D5F8FC30844CE8
:102C300043F0807300212046824AC5F8FC3020F022
:102C400033F9BFF34F8FDFF880E200234EF001E04D
:102C5000E218C5F8702220330FF007C0BFF34F8F82
:102C6000BFF36F8F784D00212846784A20F01CF979
:102C7000BFF34F8F4BF6803E00234EF001E06E4ACB
:102C8000E918C2F8701220330FF007C0BFF34F8F5E
:102C9000BFF36F8F03200021012602274FF01E098A
:102CA0008DF830006A486B4A0068CDE90A1203FBD0
:102CB0000044694BCDE90D411193684B06A9089377
:102CC0000AAB049304A80EAB0F928DF840600692F5
:102CD0008DF81C70ADF8249005931EF0E7FD0446B6
:102CE00030B140F2FB515E4B5E4A5F481FF092F8F4
:102CF00030460EF069FD20460FF0F8F8DFF8CC8181
:102D00005A480EF08FFD4FF0FF300EF083FD424623
:102D1000394638461CF068FEA8F1040548F8040C52
:102D200058B12146384608F154021CF05DFE686532
:102D300040B958F8040C1DF01BF94FF4C361484B1F
:102D40004B4AD2E74B4BE0222146C5F8AC304A480B
:102D500003F5D833C5E92C34C5F8A870C5F8B840D8
:102D600020F0A2F801F020FA21463046434A1CF038
:102D70003BFE434B186020B940F22161414B3C4A75
:102D8000B3E7414D21462A4630461CF02DFE2F1F49
:102D900045F8040C20B940F223613C4B344AA4E7C7
:102DA000304605F154011CF0E1FE786520B940F28F
:102DB0002561374B2E4A98E72146214801F0C0FA99
:102DC000344B4FF400620293334B344901931D237B
:102DD0003348009323461DF081F920B940F22D615C
:102DE000304B234A81E7304B4FF4006202932F4B64
:102DF0002F4901931A232F48009323461DF06EF9A3
:102E000020B94FF4C661274B194A6EE72A4B4FF49D
:102E100000620293294B2A49CDE9009329482346B1
:102E20001DF05CF920B940F233611E4B104A5CE79B
:102E300013B0BDE8F08300BF00ED00E0D7BA023464
:102E40000088269100C05D0000180F9100701700E7
:102E500090DC0B342003E00100D01A910060039154
:102E6000E8BA0234BC0E0334ECB90234A0170C34B7
:102E70002E10033400000091E0CF0C344C6C0C3465
:102E80009C6C0C34F1BA0234ECDA0B34F9BA02342B
:102E900005BB023460CD0C3460AD0C340FBB023482
:102EA000691A0034D2B9023400AD0C34008D0C34F0
:102EB00012BB0234A1280034A08C0C34A06C0C345A
:102EC00015BB0234AD17003400EE0200C4CD0C3443
:102ED00001282DE9F347064650D1514FDFF87081A4
:102EE0003D68D8F8004001356B4203F0030304F15C
:102EF000010405F0030555EA43B5634203F00303FB
:102F0000DFF850A1DFF8509104F0030454EA43B411
:102F100014F072FB314600220AFB049304F09CF883
:102F2000014630B140F21B213E4B3F4A3F481EF064
:102F300071FF0AFB05901EF015FD20B140F20B2138
:102F40003B4B3C4AF2E71EF017FD20B140F20D2149
:102F5000374B384AEAE71EF019FD20B14FF40471EF
:102F6000334B344AE2E7344A3D601368C8F8004006
:102F700001331360002002B0BDE8F0870228F9D1C8
:102F80002E4C002120681CF0F3FE0028F2D0D4F86B
:102F9000B42004EB8203D3F8AC50D4F8A83001324B
:102FA00092FBF3F103FB1122C4F8B420002DE1D011
:102FB00014F022FB2B460022314604F04DF820B1DC
:102FC00040F22E21174B1E4AB0E71B4B1D4A1B68CF
:102FD0000190013B13601EF005F90346A0B1606D3E
:102FE00001A91CF0D9FD012804D04FF4FF71164B44
:102FF000164A9BE7019B002BBCD04FF0E0234FF01B
:103000008052C3F8042DB5E702460146606D1CF0FE
:103010000BFD0128AED040F202210B4B0B4A85E795
:1030200090DC0B3471BA0234A20E0334ECB90234D2
:10303000E8BA0234920E033480CE0C34C0CD0C3486
:10304000730E03347CCE0C34DEB90234620E0334CA
:10305000C4D00C340070170000882691012807B5F1
:1030600010D100230193094B01A918681CF094FDAD
:10307000012807D1019B2BB14FF0E0234FF0805284
:10308000C3F8042D002003B05DF804FB9C6C0C34E5
:1030900090ED007AF5EE007AB4EEE77AF1EE10FAF0
:1030A00000B518D44FF0150EDFED0C7A4EF001E0AC
:1030B000D1ED006A86EEA77A82ED007AD1ED016A41
:1030C00086EEA77A0C3182ED017A08320FF011C03A
:1030D00001205DF804FB0020FBE700BF0000604317
:1030E0001FB5154B7C2101AA02A802930DF0AEF882
:1030F0000346E0B9019A02F4C031B1F5C03F17D0E0
:1031000042F4C0327C2102A801920DF0BBF868B9EC
:103110007C2101AA02A80DF099F830B9019B03F4B3
:10312000C033B3F5C03F03D0FEE7FEE7FEE7FEE79E
:1031300005B05DF804FB00BF0090005608B4F3B57D
:1031400004460D46164607AB094F53F8042B3021B1
:10315000384601931FF0ECFD33463A462946204697
:103160000EF018FD02B0BDE8F04001B0704700BF9E
:10317000C8D00C347047FEE7FEE7FEE7FEE708B56F
:1031800014F03AFABDE8084002F0BEB908B514F0F0
:1031900033FABDE8084002F080B8000001480EF0A4
:1031A000EDB800BF3C6B0C3401480EF0FAB800BF1C
:1031B0003C6B0C340149024813F022BC006E3234DF
:1031C0000037303408B50749074813F019FC0749A0
:1031D000074813F015FCBDE808400649064813F0FF
:1031E0000FBC00BF00F32E3400A22E34C0FC3434D8
:1031F00000C03434802428340020283408B5054920
:10320000054813F0FDFBBDE808400449044813F0ED
:10321000F7BB00BF00D0303400403034E027283402
:10322000802428340149024813F0EABB00482E34B8
:1032300000242E340149024813F0E2BB00902E34E2
:1032400000002E340149024813F0DABB00202F346D
:1032500000002E340149024813F0D2BB0040303444
:1032600000002E340149024813F0CABB00A03334D9
:103270000080323410B5AEB0B422002101A81FF096
:1032800013FE2A234FF4FC628DF8043001231B49FE
:10329000CDE90232CDE90D32CDE906220A920B9139
:1032A000119204214FF4FC52CDE91221CDE9141200
:1032B00002F1E04202F59202114C02F598720DEB18
:1032C000010021926032CDE90433CDE90833CDE924
:1032D0000F338DF830308DF85C301C938DF88830CA
:1032E00027932C928DF8B430169413F009F92046E8
:1032F000044913F0ADFB2EB010BD00BF00202834F0
:10330000006E3234808D323430B5AFB0B42200213B
:1033100001A81FF0C9FD4FF4FC6048F6C05212210D
:103320002A23CDE90210CDE90620CDE90D100A923D
:103330004FF4FC51119204228DF804300123CDE9A1
:103340001212144C1492144A144DCDE9152402F1B2
:10335000E242A2F53902A2F5B352219201A86032ED
:10336000CDE90433CDE90833CDE90F338DF83030A2
:103370008DF85C301C938DF8883027932C928DF853
:10338000B4300B9513F0BCF82946204613F060FBCF
:103390002FB030BD00002E3400370200003730342B
:1033A00037B50D4D0D4C2946204613F029FB002161
:1033B000084611F045F8042305220221CDE9003228
:1033C00007480323074A11F069FF2946204603B046
:1033D000BDE8304013F03CBBC0C43034003730345B
:1033E000CC5503345C55033430B5E9B04FF4D0729A
:1033F000002168461FF058FD2D234FF410414FF473
:1034000040608DF800300C23CDE90510099118219A
:103410004FF48072CDE901330123CDE90C114FF453
:10342000C0504FF41031CDE90323CDE90723CDE996
:103430000E23CDE91223274ACDE91010264D274C43
:10344000149120922649503A2B9260328DF82C30FC
:103450008DF858301B938DF8843026933193369233
:103460008DF8DC3004220A951594CDE943334C9154
:103470000821CDE94523CDE95013CDE95D32CDE9F1
:103480004E33CDE95933CDE95B33164B10206293AF
:10349000154BCDE94A2064930223CDE94800202052
:1034A0008DF89C31032352911049CDE95520CDE987
:1034B00053006846CDE95F224792579161928DF89B
:1034C0009D3113F0B9F82946204613F0C1FA69B0CE
:1034D00030BD00BF402149700040303400002E3420
:1034E00080204970E0204970000040BF30204970C2
:1034F00010B5E8B04FF4D072002168461FF0D4FC3C
:103500002D234FF410514FF4C0608DF80030062386
:10351000CDE90510099101F1505101F538110A91D9
:103520000C214FF48072CDE901330123CDE90C1158
:103530004FF440604FF41041CDE90323CDE9072358
:10354000CDE90E23CDE91223254ACDE910102092B2
:10355000503A2B9260321491369210210422214C61
:103560008DF82C308DF858301B938DF884302693CD
:1035700031938DF8DC301594CDE94333CDE94A2100
:10358000CDE948111849CDE945234C910821CDE9F1
:103590005D32CDE95013CDE94E33CDE95933CDE954
:1035A0005B33124B52916293114B2021649302239F
:1035B0008DF89C310323CDE95521CDE953110D49F7
:1035C0006846CDE95F224792579161928DF89D310F
:1035D00013F032F82046084913F03AFA68B010BDEB
:1035E0002021497000B02F3470204970C0204970EC
:1035F000000040BF102049700040303430B5104DFD
:10360000104C85B02946204613F0FAF900210846EF
:1036100010F016FF03230422CDE902320A4B0B4AB5
:1036200001930B4B0B4900930B480C4B11F04CFDD5
:103630002946204605B0BDE8304013F009BA00BF66
:1036400000202F3400902E347854033480540334F7
:103650007C54033448540334B8540334685403345A
:1036600030B5104D104C85B02946204613F0C8F9EE
:103670000021084610F0E4FE01230222CDE90232C7
:103680000A4B0B4A01930B4B0B4900930B480C4B15
:1036900011F01AFD2946204605B0BDE8304013F070
:1036A000D7B900BF0040303400202F34C05303345A
:1036B000C8530334C45303349053033400540334C5
:1036C000B053033430B5104D104C85B02946204618
:1036D00013F096F90021084610F0B2FE02230322EF
:1036E000CDE902320A4B0B4A01930B4B0B49009375
:1036F0000B480C4B11F0E8FC2946204605B0BDE80C
:10370000304013F0A5B900BF00803234004030349F
:1037100008530334105303340C530334D852033486
:1037200048530334F852033430B5104D104C85B073
:103730002946204613F064F90021084610F080FE67
:1037400004230822CDE902320A4B0B4A01930B4BAA
:103750000B4900930B480C4B11F0B6FC2946204650
:1037600005B0BDE8304013F073B900BF00C0343479
:1037700000A03334505203345852033454520334AB
:1037800020520334905203344052033400487047AF
:103790000058033400487047E057033440B911F033
:1037A0001F0007D1B2F5D83F06D3044B196070470C
:1037B00003207047012070470220704780380D3485
:1037C00010B9024B186870470020704780380D34DC
:1037D000032070470020704707B50022064B0749B9
:1037E0001A604FF4CF5301AA0548019313F062F811
:1037F00003B05DF804FB00BFF8D00C3440D70734A9
:1038000000D10C3413B511F0F5F80D49A1F5CF40F6
:1038100013F0D2F811F006F90A4B002200930A4B7C
:103820000A491B680A4813F07FF8044620B104498E
:10383000A1F5CF4013F00CF9204602B010BD00BF37
:1038400080380D34F8D00C3480380D3458D7073414
:1038500000D10C3400487047745603340048704758
:10386000A051033400487047D050033400487047DB
:10387000181C03340149024813F0C2B840022E3428
:1038800000022E340149024813F0BAB860122E34F7
:1038900000122E3430B51F4CAFB021461E4813F035
:1038A000AFF8B422002101A81FF0FEFA2A233F221C
:1038B0008DF8043001230421CDE90423CDE90F2341
:1038C000CDE90622CDE90A241192FC22CDE912218C
:1038D000CDE91412114A124D0DEB01002192403234
:1038E000CDE90233CDE90833CDE90D338DF8303021
:1038F0008DF85C301C938DF8883027932C928DF8CE
:10390000B430169512F0FCFD2146284613F0A0F8BD
:103910002FB030BD00022E34E0012E34409188706B
:1039200000012E3430B51F4D1F4CAFB02946204644
:1039300013F066F80021B42201A81FF0B5FA2A237B
:103940001A4A8DF804300B9204220123CDE9122289
:10395000CDE91422164A01A81692164ACDE902337F
:1039600021924032CDE90433CDE90633CDE9083365
:10397000CDE90D33CDE90F330A938DF83030119333
:103980008DF85C301C938DF8883027932C928DF83D
:10399000B43012F0B5FD2946204613F059F82FB087
:1039A00030BD00BF60022E3440022E3450122E343F
:1039B00050022E343091887030B51E4C1E4DAFB081
:1039C0002946204613F01CF80021B42201A81FF05C
:1039D0006BFA2A23194A8DF804300B920422012332
:1039E000CDE91222CDE91422154A01A821924032D4
:1039F000CDE90233CDE90433CDE90633CDE908330F
:103A0000CDE90D33CDE90F330A938DF830301193A2
:103A10008DF85C301C938DF8883027932C928DF8AC
:103A2000B430169412F06CFD2946204613F010F8BD
:103A30002FB030BD40022E3460022E3440122E349E
:103A40002091887030B5204DAFB029461F4812F044
:103A5000D7FFB422002101A81FF026FA2A233F2213
:103A60008DF8043001231A49CDE90423CDE90F2351
:103A7000CDE906220A920B9111920421FC22CDE994
:103A80001221CDE91412134A134C0DEB01002192BF
:103A90004032CDE90233CDE90833CDE90D338DF85D
:103AA00030308DF85C301C938DF8883027932C9241
:103AB0008DF8B430169412F023FD2946204612F0FA
:103AC000C7FF2FB030BD00BF00012E34E0002E3400
:103AD00000122E345091887000002E340048704738
:103AE000586308340048704738630834032070472F
:103AF0000020704703207047002070470120704766
:103B00000120704700487047AC6208340048704795
:103B10003C62083400487047FC6008340048704735
:103B2000C4460834027D436802B11B6880681844AB
:103B3000704740B103684BB9C36BB3F5003F3CBF5E
:103B40004FF44033C3634FF44030704700200B60A4
:103B5000704700002DE9F3411F4600230E4601A9DE
:103B600004460193FFF7E5FFB0F5003F90460DD204
:103B70003E4B019A9A420CD034B1E36BB3F5003F4F
:103B80003CBF4FF44033E3634FF4403002B0BDE834
:103B9000F081FFF763FE054628B9C721344B354A4B
:103BA00035481EF037F94EB9002CEDD0E36B3348A1
:103BB000B3F5003F3CBF314BE363E7E7FFB1B8F13A
:103BC000010F12D1002128680028DFD06A7DB2FAE7
:103BD00082F25209BA4235D12B7D002B34D0AB682A
:103BE000D3B1E221264B234ADAE7002CCCD0E36B99
:103BF0002448B3F5003F3CBF224BE363C6E7B8F16E
:103C0000000FDFD0002CBFD0E36B1F48B3F5003F9F
:103C10003CBF1D4BE363B9E756F821206B68D00623
:103C200009D0002CB0D0E36B1848B3F5003F3CBF7F
:103C3000164BE363AAE71BB9ED21154B0D4AAFE71D
:103C40001A6001313835BEE72846FFF76BFF56F89A
:103C500021808045F5D0002C96D0E36B0D48B3F55C
:103C6000003F3CBF0B4BE36390E700BFEC870A3497
:103C70005ADE023480870A341FDE0234010002005B
:103C800000DE023411000400410004007000040052
:103C90003ADE023410000400F7B51E4600230F463A
:103CA00001A904460193FFF744FFB0F5003F154614
:103CB0000DD2254B019A9A420BD034B1E36BB3F588
:103CC000003F3CBF4FF44033E3634FF4403003B058
:103CD000F0BD4DB9002CF8D0E36BB3F5003F01D235
:103CE0001A4BE3631948F2E736B1FFF7BBFD30B971
:103CF000022300202B60EAE7FFF7B8FD28B1044655
:103D0000394623681BB9002EF2D1EF23F1E7BFB18A
:103D1000237D8BB1A3682BB192210D4B0D4A0E4828
:103D20001EF078F82046FFF7FDFEC306086007D0B6
:103D300094210A4B074AF2E72046FFF7F3FE08609A
:103D400038340431DDE700BFEC870A34010002009B
:103D500000DE0234B3870A341FDE023477DE023419
:103D600010B540B104684CB1C26BB2F5003F3CBF26
:103D70004FF44032C2634FF4403010BD034AC0E9F3
:103D80000E44026012F03CFB2046F6E7EC870A3452
:103D9000002313B50C4601A902460193FFF7C9FEA3
:103DA000B0F5003F0DD20B4B019999420BD032B1C7
:103DB000D36BB3F5003F3CBF4FF44033D3634FF4B4
:103DC000403002B010BD2146104602B0BDE81040A0
:103DD00012F048BBEC870A340123FFF75DBF0000F7
:103DE00037B500250C4601A902460195FFF7A1FE53
:103DF000B0F5003F0DD21A4B019999420BD032B168
:103E0000D36BB3F5003F3CBF4FF44033D3634FF463
:103E1000403003B030BD5022294620461FF044F800
:103E2000104B40F2E11263600F4B2846A3600F4B2A
:103E3000E36040F20113A3820323A37523760123D9
:103E400023774FF0E053C4E90A23094B2363EF23A0
:103E5000A386084BE363084B2364084B6364D8E7ED
:103E6000EC870A349EDE0234B3DE0234C1DE023453
:103E7000010002005C170C34F4160C3494DC0B3493
:103E80000123FFF767BE12F0C9BA027D436802B191
:103E90001B6880681844704740B103684BB9C36B16
:103EA000B3F5003F3CBF4FF44033C3634FF44030A1
:103EB000704700200B607047F7B51E4600230F4681
:103EC00001A904460193FFF7E7FFB0F5003F15464F
:103ED0000DD2254B019A9A420BD034B1E36BB3F566
:103EE000003F3CBF4FF44033E3634FF4403003B036
:103EF000F0BD4DB9002CF8D0E36BB3F5003F01D213
:103F00001A4BE3631948F2E736B1FFF703FE30B905
:103F1000042300202B60EAE7FFF700FE28B10446E7
:103F2000394623681BB9002EF2D17623F1E7BFB1E1
:103F3000237D8BB1A3682BB192210D4B0D4A0E4806
:103F40001DF068FF2046FFF7A0FFC306086007D0FA
:103F500094210A4B074AF2E72046FFF796FF0860D4
:103F600038340431DDE700BF8C880A3401000200D8
:103F700000DE023420880A34D5DE023477DE0234D3
:103F80002DE9F3414FF000080D4601A904461F46F4
:103F9000CDF80480FFF780FFB0F5003F16460DD244
:103FA000264B019A9A420CD034B1E36BB3F5003F33
:103FB0003CBF4FF44033E3634FF4403002B0BDE800
:103FC000F0814EB9002CF7D0E36BB3F5003F01D27E
:103FD0001B4BE3631A48F1E7FFF798FD0446A0B9CD
:103FE00000203760EAE72046FFF74FFFC30668501E
:103FF00008D04621134B144A1DE02046FFF745FF29
:1040000045F8280008F1010838342368002BE7D070
:10401000617DB1FA81F14909B942F5D1002DF1D0A4
:10402000237D4FEA8801002BE7D0A368002BDAD06C
:104030004321064B044A06481DF0ECFE8C880A34E6
:104040000100020077DE023458880A3400DE0234B0
:10405000D5DE023410B540B104684CB1C26BB2F584
:10406000003F3CBF4FF44032C2634FF4403010BDBC
:10407000034AC0E90E44026012F0C2F92046F6E796
:104080008C880A34002313B50C4601A9024601931B
:10409000FFF702FFB0F5003F0DD20B4B019999429B
:1040A0000BD032B1D36BB3F5003F3CBF4FF440337C
:1040B000D3634FF4403002B010BD2146104602B029
:1040C000BDE8104012F0CEB98C880A340123FFF706
:1040D00057BF0123FFF7F0BE12F0A0B907EE901A08
:1040E000F8EEE76A07EE902A9FED286AB8EEE77AC5
:1040F000DFED275A86EE865AC7EE257AB4EE675A68
:10410000F1EE10FA48BFF0EE457AB7EE005AF4EE41
:10411000C57AF1EE10FA08B505DA21211D4B1E4AC9
:104120001E481DF077FE9FED1E5AF4EEC57AF1EEA3
:1041300010FA03D422211B4B174AF1E727EE866AB7
:1041400067EEA57AF4EEC66AF1EE10FAB4EEE77AFD
:10415000CCBFFCEEC66AFCEEE66AF1EE10FA16EE93
:10416000903ACCBFBCEEE77ABCEEC77A0131C91AEF
:1041700017EE103A0132D21A49085208C0ED006A0F
:1041800080ED017A8160C26008BD00BF0000484434
:104190000000F04327DF02341D890A3432DF023485
:1041A0000000804240DF0234F0B595B00DF103000D
:1041B00013F040FB28B18021584B594A59481DF053
:1041C00029FE012502AE30468DF8085013F084FC1C
:1041D00018B18821514B524AF0E74FF4FA63022498
:1041E000CDE904301E23CDE907349DF80330069055
:1041F000012B0CBF3146002105A813F0A7FB064692
:1042000018B19121454B464AD8E713F0F5F940F231
:104210002F2E0F23CDE90C66042609A90746CDE908
:104220000944CDE90EE30B9600F03AFF18B1622184
:104230003D4B3E4AC2E705234FF40C7C099340F204
:104240007F230F9009A93846CDE90B64CDE90DC352
:1042500000F026FF18B16B21334B344AAEE74FF420
:1042600048714FF4F073CDE90B460326CDE90913ED
:10427000DDE90512CDE90D5010A80F96FFF72EFFCE
:10428000284601AA09A913F0BBF918B13B21264B16
:10429000274A93E70C9A099B5343019A934203D010
:1042A0003C21244B224A89E7C0227323CDE90B0627
:1042B000CDE90923DDE90512CDE90D5010A80F96CF
:1042C000FFF70CFF204601AA09A913F099F918B1CC
:1042D0005021154B184A71E70C9A099B5343019AD8
:1042E000934203D05121134B134A67E713F084F92B
:1042F0004FF460422946044602F042FF18B1732190
:10430000094B0E4A5AE70121204602F091FF18B1ED
:104310007521054B094A51E715B0F0BD4BDF02345A
:1043200059890A3432DF023471BA023447890A34B7
:1043300030890A3461DF02340B890A34F5880A3483
:104340000A4608B50146012013F048FA28B19F211A
:10435000024B034A03481DF05DFD08BD4BDF0234EC
:10436000DF880A3432DF02340A4608B501460220EB
:1043700013F034FA28B1A721024B034A03481DF079
:1043800049FD08BD4BDF0234CE880A3432DF0234E7
:1043900008B513F039FB28B1AF21034B034A044899
:1043A0001DF038FD08BD00BF4BDF0234C0880A3461
:1043B00032DF023470471CF033B8000008B5EFF369
:1043C00005832BB12721044B044A05481DF022FD2B
:1043D000BDE808401CF086B99CDE02346E890A34C0
:1043E0009FDF023400207047042213B5154B164C92
:1043F000C3F8642AD3F864320193019B134B236002
:104400004FF0FF33E36006F05FFA114BB0FBF3F0BF
:1044100000230138606020462361A3600CF014FE85
:1044200028B13E210B4B0C4A0C481DF0F3FC2046F2
:104430000CF070FC18B14121064B074AF4E702B0BA
:1044400010BD00BF00800256544B0D3400080050D0
:10445000A086010071BA023462890A349FDF0234F7
:10446000014B1B68586A7047544B0D34034B036073
:10447000034B0B604FF4806313607047F44A0D34B4
:10448000F43A0D34034B0360034B0B60802313603D
:10449000704700BF943A0D3494380D344E4B4F4A58
:1044A00070B501209A60022500224D4901F5805423
:1044B000C1F8180AC4F81802C4F85802C3F8D82082
:1044C000C3F8DC20C3F8E020C3F8D800C3F8DC2030
:1044D000C3F8E020C3F8D8500325C3F8DC20C3F8A4
:1044E000E020C3F8D8500425C3F8DC20C3F8E0204E
:1044F000C3F8D8500525C3F8DC20C3F8E020C3F882
:10450000D8500625C3F8DC20C3F8E020C3F8D85003
:104510000725C3F8DC20C3F8E020C3F8D850C3F85F
:10452000DC20C3F8E020C1F8780A2E4DD1F87822BB
:104530009A682A612C4A566B46F480765663966BCD
:1045400046F480769663D66B46F44076D66340F2A6
:1045500087266E65EE656E64EE646E66D66B46F415
:104560008056D663D66B46F01006D663D26BD1F870
:10457000742242F40042C1F87422D1F8782242F049
:104580001002C1F87822D1F87822D1F8782222F0EE
:104590001002C1F878224FF44052C1F8202AC4F822
:1045A00020224022C1F8240AC4F82402C4F864027C
:1045B000C4F85C222A69C4F87802D3F8882042F44F
:1045C0007002C3F88820094AD2F8883043F4700397
:1045D000C2F8883070BD00BF00ED00E00004003478
:1045E00000800256008000560048025600ED02E0AE
:1045F0006E4BF0B51A6A02F44012B2F5001F00F0DB
:10460000B88006D862B99A6C694BC2F3C112D34024
:1046100003E0B2F5401F0BD00023664A1360F0BDE3
:104620005B6C654A13F4007F644B08BF1346F4E7E4
:10463000D3F8C42002F04052B2F1805F2AD0B2F128
:10464000005F36D0002A43D1D3F880703D0107F0D7
:10465000E04100F19680D3F88400D3F88820C7F3B6
:104660000B2420F07F400E46B6F1005FC2F3C26516
:10467000C7F30551C2F302624FD07CD8002E3CD064
:1046800000264A4B4C4F5B6C13F4007F4B4B08BF2A
:104690003B4638E0D3F890703C0107F0E04170D41D
:1046A000D3F89400C7F30B24D3F8982020F07F4070
:1046B000D9E7D3F8A070380107F0E04161D4D3F80E
:1046C000A400C7F30B24D3F8A82020F07F40CAE74A
:1046D000D3F8B0703A0107F0E04152D4D3F8B400F7
:1046E000C7F30B24D3F8B82020F07F40BBE70A467D
:1046F0000D4608460C464FF000662C4B9F6C2C4B29
:10470000C7F3C117FB404EB1284AD2F8C420C2F308
:1047100007420132B3FBF2F37FE7294B07EE100AA1
:10472000B8EEC76A07EE104A07EE903ADFED256A49
:10473000B8EEC77AF8EEE77AA6EE267A67EE877AC1
:1047400007EE101AB8EEC77AC7EE876A07EE905ADE
:10475000B8EEE77A07EE902AF8EEE77A27EE277AA6
:10476000C6EE877AFCEEE77A17EE903ACCE7144B68
:10477000CAE7134B51E7B6F1405F134B18BF002354
:10478000CCE7B1F1005FF2D009D80029AFD0002208
:104790004FF00066154610461446114671E7B1F118
:1047A000405F094B18BF0023AEE700BF00800256F0
:1047B0000090D00398170C3400093D000024F40049
:1047C000006CDC02000080330080BB006DED81CF07
:1047D00000B5FFF70DFF054B5DF804EB18689FEC83
:1047E000100A9FE80E90FDEC81CF744798170C34A7
:1047F000704710B5032000F00DF8FFF7F9FE0F2009
:10480000FFF7F0FD044618B9FFF7F2FF204610BD90
:104810000124FBE7C31E042B10B5044603D9E6218F
:104820000948FCF7FBFE09492302CA6803F4E06368
:1048300022F4E0621204120C134343F0BF6343F40A
:104840000033CB6010BD00BFB2DF023400ED00E0EA
:1048500010F10C0F2DE9F04105460C46174601DB1F
:10486000031D03D1FF212648FCF7D8FE254BDE6847
:10487000C6F30226022E06D857B14FF481712048A4
:10488000FCF7CCFE04E00123F21E9340BB42F4D9B6
:104890000F2CC6F1070804D8012303FA08F3A3423A
:1048A00004D840F203111648FCF7B8FEB8F1040F23
:1048B00006F1040328BF4FF004084FF0FF32062B27
:1048C000A6F1030698BF002602FA08F824EA0803B6
:1048D000B24027EA0207B340002D43EA0703ACBF0A
:1048E00005F16045084A4FEA0313DBB2ABBF05F59B
:1048F000614505F00F0585F800335355BDE8F0819B
:10490000B2DF023400ED00E014ED00E0002808DB27
:1049100001234109054A00F01F00834042F821307D
:10492000704740F215110248FCF778BE00E100E044
:10493000B2DF0234024BD868C0F30220704700BFD8
:1049400000ED00E010F10C0FF8B504460D461746D7
:104950001E4601DB031D04D14FF4BC711948FCF75E
:104960005DFEEB1E042B04D940F279111548FCF7CB
:1049700055FE002CACBF04F16044134B05F0070159
:10498000C1F10702ABBF04F5614404F00F0494F8D1
:1049900000331B5D081D042A28BF04220628A1F14C
:1049A00003014FF0FF3098BF00211B0900FA02F20B
:1049B00023FA01F4884024EA020223EA00033A6061
:1049C0003360F8BDB2DF023414ED00E0F8B51446F0
:1049D000036871BBD3F8042422F4C01242EAC44233
:1049E000C3F80424234B022C1A6838D0032C39D086
:1049F000012C3AD142F040021A60FFF7DCFC4FF480
:104A0000003607461B4DA640FFF7D5FCC01BB0F58E
:104A10007A7F2DD8D5F8903036EA0303F4D14FF4DD
:104A200088530020D5F88020A3401343C5F8803078
:104A3000F8BD0129D3F8042806D122F4C01242EAB5
:104A4000C442C3F80428CDE7520341BFD3F8042C75
:104A500022F4C01242EAC442C3F8042CC2E742F472
:104A60008062C9E742F48042C6E742F00402C3E72D
:104A70000120DDE700600058012930B54FF0020544
:104A8000046810D18571D4F800190B43C4F80039BB
:104A9000C4F8C429D4F8F03343F4060343F02003E8
:104AA000C4F8F03330BD08444571D4F8001D0B4301
:104AB000C4F8003DC4F8C42DD4F8F03343F00643E5
:104AC000ECE770B415461E4699B90223016843719C
:104AD000D1F800253243C1F80025C1F8C455D1F8FA
:104AE000F03370BC43F4064343F02003C1F8F033C5
:104AF000704770BCFFF7C0BF022383710368D3F80F
:104B0000042842F00042C3F80428D3F8002942F0F8
:104B10000802C3F80029704769B90368D3F8042470
:104B200042F00042C3F80424D3F8002542F0080202
:104B3000C3F800257047012901D1FFF7DDBF0368E5
:104B4000D3F8042C42F00042C3F8042CD3F8002D13
:104B500042F00802C3F8002D70470000184B10B552
:104B60005A69C9B242F480325A611A6942F00102AC
:104B70001A615A6942F480325A6100221A615A61FC
:104B80005C695C611C6944F001041C611A615C6928
:104B900044F480345C611C6944F001041C615C696C
:104BA000044344F480345C611A615A6158690143DA
:104BB0005961196941F0010119611A6110BD00BF05
:104BC0000070005810B50446D8B103680E4A9342ED
:104BD00008D002F17042934204D04FF4A7710B4801
:104BE000FCF71CFD237913B9204612F039FF03238B
:104BF0000020237101236071A071E071A060237116
:104C000010BD0120FCE700BF00200058FADF02348D
:104C10002DE9F0410546FEB00C464FF4FC726846A3
:104C200054491EF0C8FB1DB901207EB0BDE8F081DB
:104C3000002CF9D02B68504A934208D002F1704200
:104C4000934204D040F28B214C48FCF7E7FC2368E8
:104C5000B3F5807F07D0B3F5007F04D04FF4237104
:104C60004648FCF7DBFC6368013B012B04D940F2AA
:104C70008D214248FCF7D2FCA3683E2B04D940F2B8
:104C80008E213E48FCF7CAFC3D4B1A6822F0010217
:104C90001A60616801291AD1226842F404121A6765
:104CA0001A6842F001021A60D3F8802042F0B04244
:104CB00042F40412C3F880202268B2F5807FD3F852
:104CC000842054D1012908D142F01F0207E00229B3
:104CD000AAD1226842F49012E1E742F4F852002689
:104CE000284DC3F884202B68254F23F002032B6046
:104CF0007E602B69012043F001032B61FFF75EFB0F
:104D00002E61D4F80880AB685DF8382023F4FE43A8
:104D100043EA022343F02803AB603821082016023F
:104D2000FFF71CFF1121E420FFF718FF0DEBC8036C
:104D3000D3F80480E3204FEA182146F48036FFF7C9
:104D40000DFF46F02806E3205FFA88F1FFF706FF23
:104D5000AE6023680020B3F5807F0CBF07230F23CC
:104D60007B602B6843F002032B6068605DE742F4D0
:104D7000F852A9E7FCB5023400200058FADF0234EB
:104D8000006000580070005870B50D461446064685
:104D900008B9012070BD002AFBD00368504A934235
:104DA00008D002F17042934204D04FF444714D4850
:104DB000FCF734FC022D04D940F211314948FCF7CC
:104DC0002DFC236833F4403304D040F212314548BF
:104DD000FCF724FC022D23681CD033F4403304D0AC
:104DE00040F216313F48FCF719FC2368B3F5803FC9
:104DF00002D0B3F5003F0DD1A368183B152B04D8A2
:104E0000394A22FA03F3DA0704D440F21B31354859
:104E1000FCF704FC2368B3F5403F0DD06368183BF2
:104E2000152B04D8304A22FA03F3DB0704D440F2EE
:104E300021312C48FCF7F2FB3379013B012B2ED8B2
:104E40002268B2F5403F45D0B2F5003F2BD1002D8E
:104E50009FD113466168B2F5803F43EA0103316890
:104E600002D0B2F5003F04D1022D2BD0A26843EA54
:104E70000223EDB931681D4AD1F8040402401A43F7
:104E8000C1F804243368D3F8042122F48042C3F823
:104E90000421D3F8042242F00102C3F804220223C1
:104EA0000020337176E7022D14BF13460023D1E7AB
:104EB000012D07D1D1F804080C4A02401A43C1F869
:104EC0000428DFE7D1F8042C22F03F021343C1F895
:104ED000043CD7E7002D7FF45CAF1346CAE700BF60
:104EE00000200058FADF0234C31F3C00C0C0FCFFA2
:104EF000032970B506460D46144604D94FF4727165
:104F00001548FCF78BFB062C04D940F2C931124836
:104F1000FCF784FBF6B1032D08D8DFE805F00209A1
:104F20000F150E4B240244F001041C61002070BDDB
:104F30000A4B240244F001041C62F7E7074B2402E9
:104F400044F001041C63F1E7044B240244F0010423
:104F50001C64EBE70120EAE7FADF02340060005846
:104F6000F8B50D461446064608B90120F8BD002ADA
:104F7000FBD00368474A934208D002F17042934243
:104F800004D040F202414448FCF748FB022D04D90A
:104F900040F203414048FCF741FB2368032B04D94E
:104FA00040F204413C48FCF739FBCDB971194B790B
:104FB0003279DBB2022AD8D1012B01D9042BD4D10A
:104FC00002234B71336827681DBBD3F8002522F0FC
:104FD00003023A43C3F80025012300204B71C5E7C3
:104FE000A3680A2B04D940F207412B48FCF716FBB3
:104FF00063681A0702D1B3F5004F04D34FF48161FF
:105000002548FCF70BFB022DD0D1A368062BCDD988
:10501000ABE7012DD4E9010626D1D3F800291F4CB6
:1050200022F003023A43C3F80029D3F8C02922F042
:105030000F023243C3F8C029D3F8CC2922400243DF
:10504000C3F8CC29F21F012A06D8D3F8DC29224064
:105050000243C3F8DC29BFE7092EBDD1D3F8DC2910
:10506000224042EA5002F4E7D3F8002D22F0030276
:105070003A43C3F8002DD3F8C02D22F00F0232437B
:10508000C3F8C02DD3F8CC2D6FF30E020243C3F842
:10509000CC2DA1E700200058FADF02340080FFFF8A
:1050A00070B50C46054608B9012070BD0029FBD03B
:1050B0000B68013B042B04D940F23F415248FCF7F6
:1050C000ADFA6369B3F5806F04D34FF488614E483D
:1050D000FCF7A4FA2369B3F5806F04D340F2414191
:1050E0004948FCF79BFAE3680F2B04D940F2424190
:1050F0004548FCF793FA6368072B04D940F2434113
:105100004148FCF78BFAA368042B04D940F24441D0
:105110003D48FCF783FAA3690F2B04D940F24541BF
:105120003948FCF77BFA2B79002BBDD02A685368ED
:1051300043F001035360FFF73EF90646FFF73BF9E2
:10514000801BB0F57A7FAFD82B689A68D207F5D567
:1051500062681A602268013A042A11D8DFE802F076
:10516000031C2A384600D4E9022142EA01221A62CD
:10517000A26912045A62D4E9042142EA01429A6205
:105180005A68002022F001025A60D3F8F02342F05E
:105190002002C3F8F02388E7D4E9022142EA012281
:1051A0001A63A26912045A63D4E9042142EA014253
:1051B0009A63E5E7D4E9022142EA01221A64A2696E
:1051C00012045A64D4E9042142EA01429A64D7E7FE
:1051D000D4E9022142EA01221A65A26912045A6541
:1051E000D4E9042142EA01429A65C9E7D4E90221DF
:1051F00042EA01221A66A26912045A66D4E904211D
:1052000042EA01429A66BBE7FADF02342DE9F04137
:10521000022904460D4616461F46DDF8188004D9BB
:1052200040F211611A48FCF7F9F9032E04D940F253
:1052300012611748FCF7F2F938F0040304D040F289
:1052400013611348FCF7EAF91CB901263046BDE8A2
:10525000F0813A07F9D123686219D3F80432527900
:10526000012AF2D1DB07F0D5324629462046FFF766
:10527000ADFB06460028E8D12946204643463A467B
:10528000FFF71FFC29462046FFF746FCDEE700BF7C
:10529000FADF0234704770477047036870B5D3F87F
:1052A000F86304467204D3F8F05312D5690410D59C
:1052B000D3F8F023002122F48042C3F8F02382685F
:1052C00042F0040282604FF48042C3F8FC23FFF7EF
:1052D000E2FF72050AD56B0508D54FF4806223689A
:1052E00000212046C3F8FC2312F09AFBB00516D526
:1052F000A90514D52368D3F80025520707D5D3F89C
:10530000F02322F40642C3F8F023012262714FF425
:10531000007200212046C3F8FC2312F091FBF30534
:105320000AD5E80508D54FF480722368002120468D
:10533000C3F8FC23FFF7AEFF310416D52A0414D5B9
:1053400023680021D3F8F023204622F40042C3F85A
:10535000F023A26842F00802A2604FF40042C3F8B2
:10536000FC230423637112F0DBFBF3030AD5E8038B
:1053700008D54FF48032236801212046C3F8FC236E
:10538000FFF788FF71030AD56A0308D54FF480221E
:10539000236801212046C3F8FC2312F041FBB3032C
:1053A00016D5A80314D52368D3F80029510707D5CB
:1053B000D3F8F02322F40602C3F8F0230122A271ED
:1053C0004FF4003201212046C3F8FC2312F038FBD1
:1053D000320216D52B0214D523680121D3F8F0230D
:1053E000204622F40002C3F8F023A26842F0100223
:1053F000A2604FF40002C3F8FC230423A37112F04F
:105400008FFBF0010AD5E90108D54FF080722368BF
:1054100002212046C3F8FC23FFF73CFF72010AD5A6
:105420006B0108D54FF08062236802212046C3F843
:10543000FC2312F0F5FAB00116D5A90114D52368A2
:10544000D3F8002D520707D5D3F8F02322F00642F7
:10545000C3F8F0230122E2714FF0007202212046CE
:10546000C3F8FC2312F0ECFA002E16DA002D14DA41
:1054700023680221D3F8F023204622F00042C3F82B
:10548000F023A26842F02002A2604FF00042C3F86D
:10549000FC230423E37112F043FB700614D5690664
:1054A00012D523682046D3F8F02322F04002C3F837
:1054B000F023A26842F00202A2604022C3F8FC235B
:1054C00004232371FFF7E8FEB20614D5AB0612D50C
:1054D00023682046D3F8F02322F02002C3F8F023FB
:1054E000A26842F00102A2602022C3F8FC23042338
:1054F0002371FFF7D1FE70BD70477047704770474A
:105500007047704770470000B54B2DE9F041D3F864
:1055100090600446B202D3F89480D3F88050D3F858
:1055200084700DD5A9020BD5D3F8802022F4001287
:10553000C3F880204FF40012C3F80021FFF7DDFF0D
:10554000320715D52B0713D523680321D3F800356F
:10555000204613F0040FA24B1EBFD3F8802022F088
:105560000802C3F880200822C3F80021FFF7CAFF11
:10557000700715D5690713D523680221D3F80035C4
:10558000204613F0040F964B1EBFD3F8802022F064
:105590000402C3F880200422C3F80021FFF7B2FF01
:1055A000B20715D5AB0713D523680121D3F8003511
:1055B000204613F0040F8A4B1EBFD3F8802022F040
:1055C0000202C3F880200222C3F80021FFF79AFFED
:1055D000F00715D5E90713D523680021D3F8003566
:1055E000204613F0040F7E4B1EBFD3F8802022F01C
:1055F0000102C3F880200122C3F80021FFF782FFD7
:10560000320416D52B0414D523680321D3F80035B2
:10561000204613F0040F724B1EBFD3F8802022F4F3
:105620000042C3F880204FF40042C3F80021FFF786
:1056300066FF700416D5690414D523680221D3F8D7
:105640000035204613F0040F654B1EBFD3F88020B1
:1056500022F48042C3F880204FF48042C3F8002136
:10566000FFF74DFFB20416D5AB0414D52368012112
:10567000D3F80035204613F0040F594B1EBFD3F862
:10568000802022F40052C3F880204FF40052C3F867
:105690000021FFF734FFF00416D5E90414D5236880
:1056A0000021D3F80035204613F0040F4C4B1EBFE9
:1056B000D3F8802022F48052C3F880204FF4805227
:1056C000C3F80021FFF71BFF320516D52B0514D5B3
:1056D00023680321D3F80035204613F0040F404B14
:1056E0001EBFD3F8802022F40062C3F880204FF45C
:1056F0000062C3F80021FFF703FF700516D56905A6
:1057000014D523680221D3F80035204613F0040F86
:10571000334B1EBFD3F8802022F48062C3F8802070
:105720004FF48062C3F80021FFF7EAFEB20516D5F8
:10573000AB0514D523680121D3F80035204613F0BA
:10574000040F274B1EBFD3F8802022F40072C3F849
:1057500080204FF40072C3F80021FFF7D1FEF0055E
:1057600016D5E90514D523680021D3F80035204665
:1057700013F0040F1A4B1EBFD3F8802022F480725E
:10578000C3F880204FF48072C3F80021FFF7B8FE01
:10579000320615D52B0613D523680321D3F800351F
:1057A000204613F0040F0E4B1EBFD3F8802022F0CA
:1057B0008002C3F880208022C3F80021FFF7A1FEF9
:1057C000700619D5690617D523680221D3F800356C
:1057D000204613F0040F024B18BFD3F8802001E0DD
:1057E000006000581CBF22F04002C3F88020402215
:1057F000C3F80021FFF785FEB20615D5AB0613D519
:1058000023680121D3F80035204613F0040FB94B6B
:105810001EBFD3F8802022F02002C3F8802020226F
:10582000C3F80021FFF76DFEF00615D5E90613D584
:1058300023680021D3F80035204613F0040FAD4B48
:105840001EBFD3F8802022F01002C3F8802010225F
:10585000C3F80021FFF755FE720013D56B0011D578
:10586000A44B2046D3F8802022F08042C3F8802049
:105870004FF08042C3F80021A36843F48073A36013
:10588000FFF70AFDB00013D5A90011D5994B2046AA
:10589000D3F8802022F00052C3F880204FF000524D
:1058A000C3F80021A36843F40073A360FFF7F4FC7E
:1058B000F20013D5EB0011D58E4B2046D3F8802093
:1058C00022F08052C3F880204FF08052C3F80021AC
:1058D000A36843F48063A360FFF7DEFC300113D5B7
:1058E000290111D5834B2046D3F8802022F0006295
:1058F000C3F880204FF00062C3F80021A36843F48E
:105900000063A360FFF7C8FC720113D56B0111D5CA
:10591000784B2046D3F8802022F08062C3F88020A4
:105920004FF08062C3F80021A36843F48053A36062
:10593000FFF7B2FCB00113D5A90111D56D4B20467C
:10594000D3F8802022F00072C3F880204FF000725C
:10595000C3F80021A36843F40053A360FFF79CFC45
:10596000F20113D5EB0111D5624B2046D3F880200C
:1059700022F08072C3F880204FF08072C3F80021BB
:10598000A36843F48043A360FFF786FC18F0010F7F
:1059900014D0F80712D50121564B2046D3F88020A9
:1059A00022F00102C3F88020C3F80411A36843F475
:1059B0000023A36004232371FFF79EFD18F0020F5C
:1059C00015D0B90713D54B4B0121D3F880202046C1
:1059D00022F00202C3F880200222C3F80421A36847
:1059E00043F48023A36004232371FFF785FD18F09F
:1059F000040F13D07A0711D53E4B0121D3F8802034
:105A0000204622F00402C3F880200422C3F80421B7
:105A1000A36843F40033A360FFF76EFD18F0080F8E
:105A200013D03B0711D5334B0121D3F880202046FA
:105A300022F00802C3F880200822C3F80421A368DA
:105A400043F48033A360FFF757FD18F0100F13D015
:105A5000F80611D5274B0121D3F88020204622F0EB
:105A60001002C3F880201022C3F80421A36843F475
:105A70000043A360FFF740FD18F4807F16D0F905BE
:105A800014D51C4B0221D3F88020204622F48072CA
:105A9000C3F880204FF48072C3F80421A36843F454
:105AA0000023A36004232371FFF726FD18F4007F71
:105AB00016D0BA0514D50F4B0221D3F8802020460A
:105AC00022F40072C3F880204FF40072C3F804215E
:105AD000A36843F48023A36004232371FFF70CFD24
:105AE00018F4806F17D07B0515D5024B0221D3F82F
:105AF000802001E000600058204622F48062C3F854
:105B000080204FF48062C3F80421A36843F400337B
:105B1000A360FFF7F1FC18F4006F14D0380512D51C
:105B20001F4B0221D3F88020204622F40062C3F8E4
:105B300080204FF40062C3F80421A36843F480334B
:105B4000A360FFF7D9FC18F4805F14D0F90412D5D4
:105B5000134B0221D3F88020204622F48052C3F850
:105B600080204FF48052C3F80421A36843F400431B
:105B7000A360FFF7C1FCF2030FD5EB030DD5084B73
:105B80002046D3F8802022F48032C3F880204FF4DE
:105B90008032C3F80021FFF7B1FCBDE8F08100BFFF
:105BA0000060005870B50E461446054608B901203D
:105BB00070BD002AFBD0022904D94FF46F614A4816
:105BC000FBF72CFD236933F0804304D040F6F161EC
:105BD0004548FBF723FD6368B3F5805F04D340F6C7
:105BE000F2614148FBF71AFD40F6FE72E368013BA3
:105BF000934204D940F6F3613B48FBF70FFD40F6B2
:105C0000FE72A368013B934204D940F6F461364822
:105C1000FBF704FD2368B3F5805F04D340F6F5611C
:105C20003148FBF7FBFC2B79022BC0D13EBB2A6825
:105C30002E4BD2F804110B40B3F5804FB7D0D4E906
:105C40000003D2F8041543EA004301F0F0210B43AE
:105C5000C2F80435D2F80815D4E9033021F09F4189
:105C6000034321F4FE01A06821F47F6143EA00436D
:105C700021F00F010B43C2F80835002098E7012EF0
:105C800017D1D4E900032A6843EA0043D2F8041983
:105C900001F0F0210B43C2F80439D2F80819D4E915
:105CA000020301F0F02143EA00430B43C2F8083934
:105CB000E3E7022E7FF47BAFD4E900032A6843EACE
:105CC0000043D2F8041D01F0F0210B43C2F8043D5B
:105CD000D2F8081DD4E9020301F0F02143EA0043A1
:105CE0000B43C2F8083DC8E7FADF02340040FF006A
:105CF000022938B505460C4604D94FF474611A4898
:105D0000FBF78CFC6DB32B79022B2AD17CB92B6865
:105D1000164AD3F804110A40B2F5804F21D0D3F8C7
:105D2000082542F00042C3F80825002038BD012CA8
:105D30000DD12B682046D3F82028B2F5004FF5D0BE
:105D4000D3F8082942F00042C3F80829EDE7022CF5
:105D500007D12A68D2F8083D43F00043C2F8083D55
:105D6000E3E70120E2E700BFFADF02340040FF0072
:105D7000022908B506D940F67F711048FBF74EFCA2
:105D800001200AE00028FBD0036839B9D3F80825C0
:105D900022F00042C3F80825002008BD01290BBFEE
:105DA000D3F80829D3F8082D22F0004222F000424F
:105DB0000CBFC3F80829C3F8082DEDE7FADF023459
:105DC000022970B505460E46144604D941F2530126
:105DD0001848FBF723FC226852B1182A03D8164B47
:105DE000D340DA0704D441F254011248FBF716FC01
:105DF000626852B1062A03D85423D340DB0704D487
:105E000041F255010B48FBF709FC8DB12B79022BB0
:105E10000ED1012E0CD1D4E90030034300202968B3
:105E2000D1F8302822F01E021343C1F8303870BD7B
:105E30000120FCE7FADF023400010101022908B564
:105E400006D941F27B010948FBF7E8FB012008BDB8
:105E50000028FBD00129F9D102680020D2F830389F
:105E600043F00103C2F83038F1E700BFFADF023433
:105E700070B50E461446054608B9012070BD0229CA
:105E800004D941F2BD011E48FBF7C8FB226852B19C
:105E9000182A03D81B4BD340DA0704D441F2BE01C1
:105EA0001748FBF7BBFB626852B1062A03D854239C
:105EB000D340DB0704D441F2BF011148FBF7AEFB2E
:105EC0002B79022BD9D1012E0CD1D4E900302968CD
:105ED0000343D1F80C2922F01E021343C1F80C39F8
